:020000020000FC
:1000000004E00EBF0FE50DBF47E20E947E000E9494
:1000100081000E942200F8CF48E40E949B000E94C9
:10002000C6004DE70E94C6000E94A2005FC048E4DF
:100030000E949B000E94C6004DE60E94C6000E94DE
:10004000A20054C04F734F3361F04E33A9F04D33CB
:10005000F1F04B3339F14733B9F14F3241F34F31BE
:10006000D9F248E40E949B000E94C6004FE30E9420
:10007000C6000E94A2003AC048E40E949B000E9471
:10008000C60046E00E94C6000E94A2002FC048E4BD
:100090000E949B000E94C6004BE50E94C6000E9481
:1000A000A20024C048E40E949B000E94C6004FE4C6
:1000B0000E94C6000E94A2000E949B0012E00E94C3
:1000C00077000E94A20012C048E40E949B000E9498
:1000D000C60046E60E94C6000E94A2000E949B0045
:1000E00011E00E9477000E94A20000C008954CE435
:1000F0000E94C600412F0E94C6000895440F4395F8
:1001000008950E949B000E94C6000E94C0000E94A9
:100110008C000E94A200089528E0A0980E94C000D0
:10012000440F99994160A09A0E94C0002A95A9F7AE
:100130000E94B6000895A19A0E94C000A09A0E9451
:10014000C0000895A19A0E94C000A0980E94C0001B
:10015000A1980E94C0000895A19A0E94C000A09892
:100160000E94C000A09A0E94C0000895A1980E9419
:10017000C000A0980E94C000A09A0E94C0000895EC
:100180000F930AE00A95F1F70F91089528E047FDD3
:100190000E94B60047FF0E94AC00440F2A95203011
:0801A000B1F70E94B6000895BA
:00000001FF
