:020000020000FC
:1000000004E00EBF0FE50DBF47E20E940A000E9408
:100010000D00FACF440F439508950E9424000E94DA
:100020004F000E9449000E9418000E942B00089572
:1000300028E0A098440F999941602A95A09A203011
:10004000C1F70E943F000895A19A0E944900A09A1A
:100050000E9449000895A19A0E944900A0980E9418
:100060004900A1980E9449000895A19A0E94490060
:10007000A0980E944900A09A0E9449000895A19862
:100080000E944900A0980E944900A09A0E9449003D
:1000900008950F930AE00A95F1F70F91089528E06B
:1000A00047FD0E943F0047FF0E943500440F2A95FC
:0A00B0002030B1F70E943F000895D0
:00000001FF
