:020000020000FC
:1000000004E00EBF0FE50DBF47E20E9409000E9409
:100010000C00440F439508950E9421000E944C005B
:100020000E9446000E9417000E942800089528E0C0
:1000300003B3440F2A952030E1F70E943C00089555
:100040000895A19A0E944600A09A0E944600089531
:10005000A19A0E944600A0980E944600A1980E9482
:1000600046000895A19A0E944600A0980E9446006A
:10007000A09A0E9446000895A1980E944600A09868
:100080000E944600A09A0E94460008950F930AE03D
:100090000A95F1F70F91089528E047FD0E943C0072
:1000A00047FF0E943200440F2A952030B1F70E948A
:0400B0003C00089573
:00000001FF
