:020000020000FC
:1000000004E00EBF0FE50DBF30E00E9431004AE46E
:100010000E942700303031F0313039F0323041F079
:10002000333049F012E00C941E0011E00C941E00D5
:1000300010E00C941E0013E00C941E004CE40E948F
:10004000270033950E9473003430F9F6DDCF0E940B
:1000500048000E943A00412F0E943A000E944F003F
:100060000895FF93EF93F1E0E6E0E30F1491EF9131
:10007000FF91089528E047FD0E94630047FF0E941A
:100080005900440F2A952030B1F70E94630008956B
:10009000A19A0E946D00A09A0E946D000895A19AF5
:1000A0000E946D00A0980E946D00A1980E946D00B2
:1000B0000895A19A0E946D00A0980E946D00A09AD8
:1000C0000E946D000895A1980E946D00A0980E9462
:1000D0006D00A09A0E946D0008950F930AE00A95A2
:1000E000F1F70F9108950F931F932F932FEF0AE0CD
:1000F0001FE11A95F1F70A95D9F72A95C9F72F91BB
:100100001F910F9108953F065B4F666D7D077F6FCE
:06011000777C395E797175
:00000001FF
