:020000020000FC
:1000000004E00EBF0FE50DBF0E9422000E940C000D
:100010000E9410000E94290048E40E9414000895E4
:10002000412F0E941400089528E047FD0E943D00E2
:1000300047FF0E943300440F2A952030B1F70E94F9
:100040003D000895A19A0E944700A09A0E9447008F
:100050000895A19A0E944700A0980E944700A19885
:100060000E9447000895A19A0E944700A0980E940C
:100070004700A09A0E9447000895A1980E94470057
:10008000A0980E944700A09A0E94470008950895F2
:00000001FF
