:020000020000FC
:1000000004E00EBF0FE50DBF30E00E94190048E488
:100010000E940F0033950E945B003031B1F70E94BF
:1000200030000E942200412F0E9422000E943700CF
:100030000895FF93EF93F0E0E6EDE30F1491EF9155
:10004000FF91089528E047FD0E944B0047FF0E9462
:100050004100440F2A952030B1F70E944B000895CB
:10006000A19A0E945500A09A0E9455000895A19A55
:100070000E945500A0980E945500A1980E9455002A
:100080000895A19A0E945500A0980E945500A09A38
:100090000E9455000895A1980E945500A0980E94C2
:1000A0005500A09A0E94550008950F930AE00A9502
:1000B000F1F70F9108950F931F932F932FEF0AE0FD
:1000C0001FE11A95F1F70A95D9F72A95C9F72F91EB
:1000D0001F910F9108953F065B4F666D7D077F6FFF
:0600E000777C395E7971A6
:00000001FF
