:020000020000FC
:100000000C948100112710EB17BB11E51DB90E945C
:100010001A0008950FB9779BFECF089510E417BB1F
:1000200010E41DB90895779BFECF0FB10895C49ACF
:10003000C4980895FF93EF930F931F93F0E0E0E6C9
:1000400018E001910E940A001A95D9F70E94170042
:100050001F910F91EF91FF91010101C7808080C333
:10006000FF93EF931F930F93F0E0E0E611E4002776
:1000700001931A95E9F70F911F91EF91FF91089560
:100080000FE10E9448000895FE7FFBF7EFDFBFFD00
:10009000FF93EF932F934F93402F407F0E946F0069
:1000A0002081202B20832181202B21832281202B42
:1000B0002283FF93EF932227F0E0E8E846954695E8
:1000C000469546952591403011F04A95FBCFEF912A
:1000D000FF9123834F912F91EF91FF9108951F92EC
:1000E0001124F0E0E0E6102F087F0695E00FF11DE7
:1000F000177001E0103019F0000F1A95FBCF1F9018
:10010000089504E00EBF0FE50DBF0E9430000E946D
:0A01100040000E9402000C948500DC
:00000001FF
