:020000020000FC
:100000000C94630010EB17BB11E51DB90E94190099
:1000100008950FB9779BFECF089510E417BB10E445
:100020001DB90895779BFECF0FB10895C49AC49867
:100030000895FF93EF930F93F0E0E0E601910E94A3
:10004000090001910E94090001910E94090001919B
:100050000E94090001910E94090001910E9409007B
:1000600001910E94090001910E9409000E9416005E
:100070000F91EF91FF910000007F8080807FFF93C0
:10008000EF931F930F93F0E0E0E611E40027019354
:100090001A95E9F70F911F91EF91FF910895EF9352
:1000A000FF93DF93CF931F93E6E7F0E0C0E6D0E045
:1000B00008E0159119930A95E1F71F91CF91DF910F
:1000C000FF91EF91089504E00EBF0FE50DBF0E9470
:0A00D0003F000E944F000E94020052
:00000001FF
