:020000020000FC
:100000000C946800112710EB17BB11E51DB90E9475
:100010001A0008950FB9779BFECF089510E417BB1F
:1000200010E41DB90895779BFECF0FB10895C49ACF
:10003000C4980895FF93EF930F931F93F0E0E0E6C9
:1000400018E001910E940A001A95D9F70E94170042
:100050001F910F91EF91FF91010101C7808080C333
:10006000FF93EF931F930F93F0E0E0E611E4002776
:1000700001931A95E9F70F911F91EF91FF91089560
:1000800005E00E94440008952F930E9456002081AD
:10009000202B20832181202B21832281202B22834E
:1000A0002381202B209523832F9108951F921124C3
:1000B000F0E0E0E6102F087F0695E00FF11D1770C5
:1000C00001E0103019F0000F1A95FBCF1F90089532
:1000D00004E00EBF0FE50DBF0E9430000E944000FB
:0800E0000E9402000C946C0068
:00000001FF
