:020000020000FC
:100000000C94530010EB17BB11E51DB90E941900A9
:1000100008950FB9779BFECF089510E417BB10E445
:100020001DB90895779BFECF0FB10895C49AC49867
:100030000895FF93EF930F931F93F0E0E0E618E02D
:1000400001910E9409001A95D9F70E9416001F918C
:100050000F91EF91FF91010101C7808080C7FF934D
:10006000EF931F930F93F0E0E0E611E40027019374
:100070001A95E9F70F911F91EF91FF910895EF9372
:10008000FF93DF93CF931F93E6E5F0E0C0E6D0E067
:1000900008E0159119930A95E1F71F91CF91DF912F
:1000A000FF91EF91089504E00EBF0FE50DBF0E9490
:0A00B0002F000E943F000E94020092
:00000001FF
