:020000020000FC
:100000000C949A00112710EB17BB11E51DB90E9443
:100010001A0008950FB9779BFECF089510E417BB1F
:1000200010E41DB90895779BFECF0FB10895C49ACF
:10003000C4980895FF93EF930F931F93F0E0E0E6C9
:1000400058E018E001910E940A001A95D9F70E9421
:1000500017005A95B1F71F910F91EF91FF91010190
:1000600001C7808080C3FF93EF931F930F93F0E04D
:10007000E0E611E4002701931A95E9F70F911F912B
:10008000EF91FF91089505EF0E945D0004EF0E943B
:100090005D0003EF0E945D0005E00E945D0004E04A
:1000A0000E945D0003E00E945D0004E70E945D0085
:1000B0000895FEFDFBF7EFDFBF7F0E949800FF93DE
:1000C000EF932F934F93402F407F0E948600208113
:1000D000202B20832181202B21832281202B22830E
:1000E000FF93EF932227F0E0E2EB46954695469585
:1000F00046952591403011F04A95FBCFEF91FF9145
:1001000023834F912F91EF91FF9108951F92112416
:10011000F0E0E0E6102F087F0695E00FF11D177064
:1001200001E0103019F0000F1A95FBCF1F900895D1
:100130000295089504E00EBF0FE50DBF0E94A200D6
:100140000C949E000E94330001EF0E945D0002EFBC
:100150000E945D0003EF0E945D0004EF0E945D00BD
:1001600005EF0E945D0006EF0E945D0001EE0E9417
:100170005D0001ED0E945D0002ED0E945D0003ED57
:100180000E945D0003EE0E945D0002EB0E945D0094
:1001900003EB0E945D0004EB0E945D0005EB0E94F2
:1001A0005D0002EA0E945D0005EA0E945D0002E92E
:1001B0000E945D0003E90E945D0004E90E945D0069
:1001C00005E90E945D0002E70E945D0003E70E94CE
:1001D0005D0004E70E945D0005E70E945D0003E604
:1001E0000E945D0004E50E945D0002E40E945D0043
:1001F00003E40E945D0004E40E945D0005E40E94A7
:100200005D0002E00E945D0002E10E945D0002E2EA
:100210000E945D0003E20E945D0004E20E945D0016
:1002200005E20E945D0005E10E945D0005E00E947C
:100230005D0004E00E945D0004E10E945D000E94F8
:04024000020008951B
:00000001FF
