:020000020000FC
:100000000C94430010EB17BB11E51DB90E941900B9
:1000100008950FB9779BFECF089510E417BB10E445
:100020001DB90895779BFECF0FB10895C49AC49867
:10003000089500E00E94090000E00E94090000E02D
:100040000E9409000FE70E94090000E80E940900D1
:1000500000E80E94090000E80E9409000FE70E94E2
:1000600009000E941600FF93EF931F930F93F0E097
:10007000E0E611E4002701931A95E9F70F911F912B
:10008000EF91FF91089504E00EBF0FE50DBF0E94B0
:0600900033000E94020093
:00000001FF
