:020000020000FC
:100000000C948700112710EB17BB11E51DB90E9456
:100010001A0008950FB9779BFECF089510E417BB1F
:1000200010E41DB90895779BFECF0FB10895C49ACF
:10003000C4980895FF93EF930F931F93F0E0E0E6C9
:1000400058E018E001910E940A001A95D9F70E9421
:1000500017005A95B1F71F910F91EF91FF91010190
:1000600001C7808080C3FF93EF931F930F93F0E04D
:10007000E0E611E4002701931A95E9F70F911F912B
:10008000EF91FF91089509E10E944E0009E20E945C
:100090004E000895FEFDFBF7EFDFBF7FFF93EF9368
:1000A0002F934F93402F407F0E9475002081202B7B
:1000B00020832181202B21832281202B2283FF93E7
:1000C000EF932227F0E0E4E946954695469546955C
:1000D0002591403011F04A95FBCFEF91FF9123839A
:1000E0004F912F91EF91FF9108951F921124F0E00D
:1000F000E0E6102F087F0695E00FF11D177001E074
:10010000103019F0000F1A95FBCF1F90089504E0EE
:100110000EBF0FE50DBF0E9433000E9443000E94F6
:0601200002000C948B00AC
:00000001FF
