:020000020000FC
:100000000C94670010EB17BB11E51DB90E94190095
:1000100008950FB9779BFECF089510E417BB10E445
:100020001DB90895779BFECF0FB10895C49AC49867
:100030000895FF93EF930F931F93F0E0E0E618E02D
:1000400001910E9409001A95D9F70E9416001F918C
:100050000F91EF91FF91010101C7808080C3FF9351
:10006000EF931F930F93F0E0E0E611E40027019374
:100070001A95E9F70F911F91EF91FF91089500E014
:100080000E94430008952F930E9451002081202B4D
:1000900020832181202B21832281202B22832F91D9
:1000A0000895FF93EF931F921124F0E0E0E6102FE4
:1000B000087F0695E00FF11D177001E0103019F070
:1000C000000F1A95FBCF1F90EF91FF91089504E068
:1000D0000EBF0FE50DBF0E942F000E943F000E943F
:0200E00002001C
:00000001FF
